:03000000020EB736
:0C0EB700787FE4F6D8FD758169020EFE1C
:100D5E002D2D2D524649442042617365642D2D2D53
:100D6E0000417474656E64616E6365000053636167
:100D7E006E20596F757220436172643A0052666933
:100D8E0064204E6F2E2069733A0031303033354176
:100D9E00443835364331002041747474656E646591
:100DAE006400204D617279204A756D612000417496
:100DBE00746E642E204E6F2E3A200025640031365C
:100DCE00303041444333363941310020417474652B
:100DDE006E64656400204A6F686E20446F65200063
:100DEE00313630304142434431343741004A657325
:100DFE007369636120522E20004361726420646F18
:100E0E006E27742065786973740054727920416E70
:0B0E1E006F746865722043617264000D
:0310B700013600FF
:100FB200D2A4C2A37F2C7E01120FC4C2A4C2A37FFB
:020FC200C81E47
:100FC400E4FDFCC3ED9FEE6480F8EC64809850155A
:100FD400E4FBFA0BBB00010ABA04F8BBFBF50DBD38
:050FE40000010C80DE9D
:010FE90022E5
:10108200D290C291D2927F057E00120FC4C29222E8
:10106F00A907E954F0F590121082E9C454F0F590F5
:03107F00021082DA
:0E109200C290D2927F057E00120FC4C292223D
:09103F007FC87E00120FC47F017E
:10104800A907E954F0F590121092E9C454F0F5900C
:03105800021092F1
:0B0FEA007FC01210487BFF7A0D79BC1D
:100FF5008B088A09890AAB08AA09A90A120E29FFD2
:10100500601012106F7401250AF50AE43509F50917
:0310150080E42252
:10105B007F021210487F281210487F0E1210487F13
:04106B000102104826
:0C10A000758920759850758DFDD28E2248
:0B10AC003098FD859936C298AF3622BF
:100B5C001210A012105B7BFF7A0D795E120FF57FDD
:100B6C00C01210487BFF7A0D796F120FF57FF47E5F
:100B7C0001120FC412105B7BFF7A0D797A120FF5FC
:100B8C007FC01210487BFF7A0D797A120FF57F9097
:100B9C007E01120FC47F011210487BFF7A0D797B06
:100BAC00120FF57FC0121048E4F569F5691210AC0C
:100BBC0074232569F8A6070569C3E5696480948CDC
:100BCC0040EB74232569F8E4F67F011210487BFF93
:100BDC007A0D798B120FF57FC0121048E4F5697409
:100BEC00232569F8E6FF12106F0569C3E569648077
:100BFC00948C40EB7F647E00120FC4750BFF750C58
:100C0C000D750D98750E00750F0C7B007A0079230D
:100C1C00120F43EF70500531E531700205307F0142
:100C2C001210487BFF7A0D79A5120FF512103F7B3D
:100C3C00FF7A0D79B0120FF5120FEA750BFF750CD8
:100C4C000D750DC985300E85310F7B007A00792228
:100C5C0012085C7B007A007922120FF5120FB2C2D7
:100C6C00A4D2A3020BA1750BFF750C0D750DCC75E1
:100C7C000E00750F0C7B007A007923120F43EF7076
:100C8C00360533E533700205327F011210487BFFC5
:100C9C007A0D79D9120FF512103F7BFF7A0D79E39B
:100CAC00120FF5120FEA750BFF750C0D750DC9853A
:100CBC00320E85330F804F750BFF750C0D750DEED5
:100CCC00750E00750F0C7B007A007923120F43EF21
:100CDC00705A0535E535700205347F011210487BDA
:100CEC00FF7A0D79D9120FF512103F7BFF7A0D792F
:100CFC00FB120FF5120FEA750BFF750C0D750DC974
:100D0C0085340E85350F7B007A00792212085C7BC6
:100D1C00007A007922120FF5120FB2C2A4D2A37F6F
:100D2C002C0E120FC4C2A4C2A3020BA17F0112107D
:100D3C00487BFF7A0E7907120FF57FC01210487BA3
:100D4C00FF7A0E7918120FF57F2C7E01120FC40258
:020D5C000BA1E9
:100EC300020B5CE493A3F8E493A34003F68001F2DE
:100ED30008DFF48029E493A3F85407240CC8C33330
:100EE300C4540F4420C8834004F456800146F6DFFF
:100EF300E4800B01020408102040809010B7E47EC8
:100F0300019360BCA3FF543F30E509541FFEE493F3
:100F1300A360010ECF54C025E060A840B8E493A3BA
:100F2300FAE493A3F8E493A3C8C582C8CAC583CAE5
:100F3300F0A3C8C582C8CAC583CADFE9DEE780BE9D
:0110BA000035
:100E2900BB010689828A83E0225002E722BBFE02C7
:090E3900E32289828A83E49322FA
:10080000E517240BF8E60517227808300702780B65
:10081000E475F001120E81020E292000EB7F2ED22A
:10082000008018EF540F2490D43440D4FF30040BD0
:10083000EF24BFB41A0050032461FFE518600215CD
:1008400018051BE51B7002051A30070D7808E475C2
:10085000F001120E81EF020E6F0210187403D2071E
:100860008003E4C207F5178B088A09890AE4F518A2
:10087000F51AF51BE51860077F2012083B80F57517
:1008800019FFC201C200C202C203C205C206C208E9
:10089000120809FF700D3007057F0012084CAF1BCE
:1008A000AE1A22B4255FC2D5C204120809FF24D0B3
:1008B000B40A00501A75F00A781830D50508B6FF4A
:1008C0000106C6A426F620D5047002D20380D924DE
:1008D000CFB41A00EF5004C2E5D204020A4CD20190
:1008E00080C6D20080C0D20280BCD2D580BAD205E8
:1008F00080B47F2012083B2002077401B518004025
:10090000F1120800FF12083B020874D208D20680D8
:1009100095120800FB120800FA120800F94A4B7001
:1009200006791D7A0B7BFF20022EE518602A7E00D7
:100930008E82758300120E4260060EEE651970F00D
:10094000C2D5EBC0E0EAC0E0E9C0E0EE120A93D005
:10095000E0F9D0E0FAD0E0FB120E29FF60AAEBC06C
:10096000E0EAC0E0E9C0E012083BD0E02401F9D0A1
:10097000E03400FAD0E0FBE5190460DCD519D98039
:10098000877BFF7A0A798FD202809C791080027966
:1009900008C206C2088008D2D5790A8004790AC242
:1009A000D5E519047002F519E4FAFDFEFF120800FE
:1009B000FC7B08200113120800FD7B1030000A1296
:1009C0000800FE120800FF7B20EC3382D592D55040
:1009D00013C3E43000069FFFE49EFEE42001039D64
:1009E000FDE49CFCE4CBF8C201EC700CCFCECDCC86
:1009F000E824F8F870F38017C3EF33FFEE33FEED11
:100A000033FDEC33FCEB33FB994002FB0FD8E9EBF1
:100A1000300105F8D0E0C448B201C0E00AEC4D4E08
:100A20004F78207B0070C2EAB5190040BCC0E012CC
:100A30000A95D0F0D0E0200104C4C0E0C4B201C0E7
:100A4000F0120824D0F0D5F0EB020874120E9109D0
:100A50001153098B5808E24C08DE42098F4F099761
:0F0A60004409974908F743099D550981460981C3
:100A6F00450981470B3D5008E62D08EA2E090D2B4D
:100A7F0008EE23090B200B262A08A64800000905BB
:100A8F003F3F3F00790AA2D5200314300509B91062
:100A9F00020404B9080104A2D52006025001042063
:100AAF0002689202B518005034C0E07F203003195D
:100ABF007F30A20272067205500F120AECC202C2F8
:100ACF0006C205C2087F30800F300503E9C0E0126F
:100ADF00083B300503D0E0F9D0E0B518CC3005174E
:100AEF007F30B9100C12083B7F583004077F788095
:100AFF0003B9080312083B3002057F2D02083B7F24
:100B0F00202008F87F2B2006F322920280CF286E38
:100B1F00756C6C2900D2011208003001F8C20178FF
:100B2F001830D50108F60208A62D5043495812086F
:100B3F00002403B405004001E4900B389312082CF5
:0D0B4F00743A12082CD20375180402098BA9
:100F43008B088A09890AAB0BAA0CA90D120E29FE7C
:100F5300AB08AA09A90A120E29FF6E702BEF600DC8
:100F6300E50F150F7002150E14450E70037F002256
:100F73007401250AF50AE43509F5097401250DF50F
:100F83000DE4350CF50C80BEAB08AA09A90A120EB4
:100F930029FDD3EE6480F8ED64809840037F01223D
:0F0FA300AB0BAA0CA90D120E29FFC3ED9FFF2265
:100E4200BB010CE58229F582E5833AF583E0225065
:100E520006E92582F8E622BBFE06E92582F8E222AF
:0D0E6200E58229F582E5833AF583E49322C9
:100E6F00BB010689828A83F0225002F722BBFE0162
:020E7F00F3225C
:100E8100FAE6FB0808E6F925F0F618E6CA3AF62272
:100E9100D083D082F8E4937012740193700DA3A3F0
:100EA10093F8740193F5828883E473740293686004
:060EB100EFA3A3A380DF04
:10101800EFB40A07740D121023740A309811A899B6
:10102800B8130CC2983098FDA899C298B811F63038
:0710380099FDC299F5992210
:00000001FF
